{
  "_format": "hh-sol-artifact-1",
  "contractName": "MailService",
  "sourceName": "contracts/MailService.sol",
  "abi": [
    {
      "anonymous": false,
      "inputs": [
        {
          "indexed": true,
          "internalType": "address",
          "name": "from",
          "type": "address"
        },
        {
          "indexed": true,
          "internalType": "uint256",
          "name": "mailId",
          "type": "uint256"
        }
      ],
      "name": "MailSent",
      "type": "event"
    },
    {
      "inputs": [],
      "name": "inbox",
      "outputs": [
        {
          "components": [
            {
              "internalType": "uint256",
              "name": "id",
              "type": "uint256"
            },
            {
              "internalType": "uint256",
              "name": "timestamp",
              "type": "uint256"
            },
            {
              "internalType": "address",
              "name": "from",
              "type": "address"
            },
            {
              "internalType": "address[]",
              "name": "to",
              "type": "address[]"
            },
            {
              "internalType": "address[]",
              "name": "cc",
              "type": "address[]"
            },
            {
              "internalType": "string",
              "name": "subject",
              "type": "string"
            },
            {
              "internalType": "string",
              "name": "content",
              "type": "string"
            }
          ],
          "internalType": "struct MLib.Mail[]",
          "name": "",
          "type": "tuple[]"
        }
      ],
      "stateMutability": "view",
      "type": "function"
    },
    {
      "inputs": [],
      "name": "inboxCount",
      "outputs": [
        {
          "internalType": "uint256",
          "name": "",
          "type": "uint256"
        }
      ],
      "stateMutability": "view",
      "type": "function"
    },
    {
      "inputs": [
        {
          "internalType": "address[]",
          "name": "to",
          "type": "address[]"
        },
        {
          "internalType": "address[]",
          "name": "cc",
          "type": "address[]"
        },
        {
          "internalType": "string",
          "name": "subject",
          "type": "string"
        },
        {
          "internalType": "string",
          "name": "content",
          "type": "string"
        }
      ],
      "name": "sendMail",
      "outputs": [],
      "stateMutability": "nonpayable",
      "type": "function"
    },
    {
      "inputs": [],
      "name": "sentBox",
      "outputs": [
        {
          "components": [
            {
              "internalType": "uint256",
              "name": "id",
              "type": "uint256"
            },
            {
              "internalType": "uint256",
              "name": "timestamp",
              "type": "uint256"
            },
            {
              "internalType": "address",
              "name": "from",
              "type": "address"
            },
            {
              "internalType": "address[]",
              "name": "to",
              "type": "address[]"
            },
            {
              "internalType": "address[]",
              "name": "cc",
              "type": "address[]"
            },
            {
              "internalType": "string",
              "name": "subject",
              "type": "string"
            },
            {
              "internalType": "string",
              "name": "content",
              "type": "string"
            }
          ],
          "internalType": "struct MLib.Mail[]",
          "name": "",
          "type": "tuple[]"
        }
      ],
      "stateMutability": "view",
      "type": "function"
    },
    {
      "inputs": [],
      "name": "sentBoxCount",
      "outputs": [
        {
          "internalType": "uint256",
          "name": "",
          "type": "uint256"
        }
      ],
      "stateMutability": "view",
      "type": "function"
    }
  ],
  "bytecode": "0x608060405234801561001057600080fd5b50611b11806100206000396000f3fe608060405234801561001057600080fd5b50600436106100575760003560e01c8063560c73db1461005c5780635f1202091461007a578063651e872b14610098578063a95f6a84146100b4578063fb0e722b146100d2575b600080fd5b6100646100f0565b604051610071919061170e565b60405180910390f35b61008261017b565b60405161008f919061165e565b60405180910390f35b6100b260048036038101906100ad91906112d9565b610218565b005b6100bc6106b8565b6040516100c9919061170e565b60405180910390f35b6100da610743565b6040516100e7919061165e565b60405180910390f35b60003073ffffffffffffffffffffffffffffffffffffffff16635f1202096040518163ffffffff1660e01b815260040160006040518083038186803b15801561013857600080fd5b505afa15801561014c573d6000803e3d6000fd5b505050506040513d6000823e3d601f19601f82011682018060405250810190610175919061139c565b51905090565b6060610213600360003373ffffffffffffffffffffffffffffffffffffffff1673ffffffffffffffffffffffffffffffffffffffff16815260200190815260200160002080548060200260200160405190810160405280929190818152602001828054801561020957602002820191906000526020600020905b8154815260200190600101908083116101f5575b50505050506107e0565b905090565b6000845114158061022b57506000835114155b61026a576040517f08c379a0000000000000000000000000000000000000000000000000000000008152600401610261906116ee565b60405180910390fd5b60006102766000610bd6565b905060006040518060e001604052808381526020014281526020013373ffffffffffffffffffffffffffffffffffffffff1681526020018781526020018681526020018581526020018481525090508060016000848152602001908152602001600020600082015181600001556020820151816001015560408201518160020160006101000a81548173ffffffffffffffffffffffffffffffffffffffff021916908373ffffffffffffffffffffffffffffffffffffffff1602179055506060820151816003019080519060200190610350929190610d5e565b50608082015181600401908051906020019061036d929190610d5e565b5060a082015181600501908051906020019061038a929190610de8565b5060c08201518160060190805190602001906103a7929190610de8565b509050506103cd604051806060016040528060238152602001611ab96023913983610be4565b600360003373ffffffffffffffffffffffffffffffffffffffff1673ffffffffffffffffffffffffffffffffffffffff168152602001908152602001600020829080600181540180825580915050600190039060005260206000200160009091909190915055610456604051806060016040528060238152602001611a96602391393384610c80565b60005b865181101561055b576002600088838151811061049f577f4e487b7100000000000000000000000000000000000000000000000000000000600052603260045260246000fd5b602002602001015173ffffffffffffffffffffffffffffffffffffffff1673ffffffffffffffffffffffffffffffffffffffff1681526020019081526020016000208390806001815401808255809150506001900390600052602060002001600090919091909150556105486040518060400160405280601f81526020017f746f3a257320696e626f782061646465642061206d61696c2e2069643d2573008152503385610c80565b808061055390611957565b915050610459565b5060005b855181101561066157600260008783815181106105a5577f4e487b7100000000000000000000000000000000000000000000000000000000600052603260045260246000fd5b602002602001015173ffffffffffffffffffffffffffffffffffffffff1673ffffffffffffffffffffffffffffffffffffffff16815260200190815260200160002083908060018154018082558091505060019003906000526020600020016000909190919091505561064e6040518060400160405280601f81526020017f63633a257320696e626f782061646465642061206d61696c2e2069643d2573008152503385610c80565b808061065990611957565b91505061055f565b5061066c6000610d1f565b813373ffffffffffffffffffffffffffffffffffffffff167f3d744d42073d3cfa47f1bba0aa07d56acbea10c3e7e7d5073144d8841625cd6d60405160405180910390a3505050505050565b60003073ffffffffffffffffffffffffffffffffffffffff1663fb0e722b6040518163ffffffff1660e01b815260040160006040518083038186803b15801561070057600080fd5b505afa158015610714573d6000803e3d6000fd5b505050506040513d6000823e3d601f19601f8201168201806040525081019061073d919061139c565b51905090565b60606107db600260003373ffffffffffffffffffffffffffffffffffffffff1673ffffffffffffffffffffffffffffffffffffffff1681526020019081526020016000208054806020026020016040519081016040528092919081815260200182805480156107d157602002820191906000526020600020905b8154815260200190600101908083116107bd575b50505050506107e0565b905090565b60606000825167ffffffffffffffff811115610825577f4e487b7100000000000000000000000000000000000000000000000000000000600052604160045260246000fd5b60405190808252806020026020018201604052801561085e57816020015b61084b610e6e565b8152602001906001900390816108435790505b50905060005b8351811015610bcc57600160008583815181106108aa577f4e487b7100000000000000000000000000000000000000000000000000000000600052603260045260246000fd5b602002602001015181526020019081526020016000206040518060e001604052908160008201548152602001600182015481526020016002820160009054906101000a900473ffffffffffffffffffffffffffffffffffffffff1673ffffffffffffffffffffffffffffffffffffffff1673ffffffffffffffffffffffffffffffffffffffff168152602001600382018054806020026020016040519081016040528092919081815260200182805480156109ba57602002820191906000526020600020905b8160009054906101000a900473ffffffffffffffffffffffffffffffffffffffff1673ffffffffffffffffffffffffffffffffffffffff1681526020019060010190808311610970575b5050505050815260200160048201805480602002602001604051908101604052809291908181526020018280548015610a4857602002820191906000526020600020905b8160009054906101000a900473ffffffffffffffffffffffffffffffffffffffff1673ffffffffffffffffffffffffffffffffffffffff16815260200190600101908083116109fe575b50505050508152602001600582018054610a61906118f4565b80601f0160208091040260200160405190810160405280929190818152602001828054610a8d906118f4565b8015610ada5780601f10610aaf57610100808354040283529160200191610ada565b820191906000526020600020905b815481529060010190602001808311610abd57829003601f168201915b50505050508152602001600682018054610af3906118f4565b80601f0160208091040260200160405190810160405280929190818152602001828054610b1f906118f4565b8015610b6c5780601f10610b4157610100808354040283529160200191610b6c565b820191906000526020600020905b815481529060010190602001808311610b4f57829003601f168201915b505050505081525050828281518110610bae577f4e487b7100000000000000000000000000000000000000000000000000000000600052603260045260246000fd5b60200260200101819052508080610bc490611957565b915050610864565b5080915050919050565b600081600001549050919050565b610c7c8282604051602401610bfa9291906116be565b6040516020818303038152906040527f9710a9d0000000000000000000000000000000000000000000000000000000007bffffffffffffffffffffffffffffffffffffffffffffffffffffffff19166020820180517bffffffffffffffffffffffffffffffffffffffffffffffffffffffff8381831617835250505050610d35565b5050565b610d1a838383604051602401610c9893929190611680565b6040516020818303038152906040527f07c81217000000000000000000000000000000000000000000000000000000007bffffffffffffffffffffffffffffffffffffffffffffffffffffffff19166020820180517bffffffffffffffffffffffffffffffffffffffffffffffffffffffff8381831617835250505050610d35565b505050565b6001816000016000828254019250508190555050565b60008151905060006a636f6e736f6c652e6c6f679050602083016000808483855afa5050505050565b828054828255906000526020600020908101928215610dd7579160200282015b82811115610dd65782518260006101000a81548173ffffffffffffffffffffffffffffffffffffffff021916908373ffffffffffffffffffffffffffffffffffffffff16021790555091602001919060010190610d7e565b5b509050610de49190610ec1565b5090565b828054610df4906118f4565b90600052602060002090601f016020900481019282610e165760008555610e5d565b82601f10610e2f57805160ff1916838001178555610e5d565b82800160010185558215610e5d579182015b82811115610e5c578251825591602001919060010190610e41565b5b509050610e6a9190610ec1565b5090565b6040518060e001604052806000815260200160008152602001600073ffffffffffffffffffffffffffffffffffffffff168152602001606081526020016060815260200160608152602001606081525090565b5b80821115610eda576000816000905550600101610ec2565b5090565b6000610ef1610eec8461174e565b611729565b90508083825260208201905082856020860282011115610f1057600080fd5b60005b85811015610f405781610f2688826110b8565b845260208401935060208301925050600181019050610f13565b5050509392505050565b6000610f5d610f588461174e565b611729565b90508083825260208201905082856020860282011115610f7c57600080fd5b60005b85811015610fac5781610f9288826110cd565b845260208401935060208301925050600181019050610f7f565b5050509392505050565b6000610fc9610fc48461177a565b611729565b90508083825260208201905082856020860282011115610fe857600080fd5b60005b8581101561103257815167ffffffffffffffff81111561100a57600080fd5b80860161101789826111b4565b85526020850194506020840193505050600181019050610feb565b5050509392505050565b600061104f61104a846117a6565b611729565b90508281526020810184848401111561106757600080fd5b6110728482856118b2565b509392505050565b600061108d611088846117a6565b611729565b9050828152602081018484840111156110a557600080fd5b6110b08482856118c1565b509392505050565b6000813590506110c781611a67565b92915050565b6000815190506110dc81611a67565b92915050565b600082601f8301126110f357600080fd5b8135611103848260208601610ede565b91505092915050565b600082601f83011261111d57600080fd5b815161112d848260208601610f4a565b91505092915050565b600082601f83011261114757600080fd5b8151611157848260208601610fb6565b91505092915050565b600082601f83011261117157600080fd5b813561118184826020860161103c565b91505092915050565b600082601f83011261119b57600080fd5b81516111ab84826020860161107a565b91505092915050565b600060e082840312156111c657600080fd5b6111d060e0611729565b905060006111e0848285016112c4565b60008301525060206111f4848285016112c4565b6020830152506040611208848285016110cd565b604083015250606082015167ffffffffffffffff81111561122857600080fd5b6112348482850161110c565b606083015250608082015167ffffffffffffffff81111561125457600080fd5b6112608482850161110c565b60808301525060a082015167ffffffffffffffff81111561128057600080fd5b61128c8482850161118a565b60a08301525060c082015167ffffffffffffffff8111156112ac57600080fd5b6112b88482850161118a565b60c08301525092915050565b6000815190506112d381611a7e565b92915050565b600080600080608085870312156112ef57600080fd5b600085013567ffffffffffffffff81111561130957600080fd5b611315878288016110e2565b945050602085013567ffffffffffffffff81111561133257600080fd5b61133e878288016110e2565b935050604085013567ffffffffffffffff81111561135b57600080fd5b61136787828801611160565b925050606085013567ffffffffffffffff81111561138457600080fd5b61139087828801611160565b91505092959194509250565b6000602082840312156113ae57600080fd5b600082015167ffffffffffffffff8111156113c857600080fd5b6113d484828501611136565b91505092915050565b60006113e98383611409565b60208301905092915050565b6000611401838361158f565b905092915050565b61141281611876565b82525050565b61142181611876565b82525050565b6000611432826117f7565b61143c8185611832565b9350611447836117d7565b8060005b8381101561147857815161145f88826113dd565b975061146a83611818565b92505060018101905061144b565b5085935050505092915050565b600061149082611802565b61149a8185611843565b9350836020820285016114ac856117e7565b8060005b858110156114e857848403895281516114c985826113f5565b94506114d483611825565b925060208a019950506001810190506114b0565b50829750879550505050505092915050565b60006115058261180d565b61150f8185611854565b935061151f8185602086016118c1565b61152881611a2d565b840191505092915050565b600061153e8261180d565b6115488185611865565b93506115588185602086016118c1565b61156181611a2d565b840191505092915050565b6000611579601283611865565b915061158482611a3e565b602082019050919050565b600060e0830160008301516115a76000860182611640565b5060208301516115ba6020860182611640565b5060408301516115cd6040860182611409565b50606083015184820360608601526115e58282611427565b915050608083015184820360808601526115ff8282611427565b91505060a083015184820360a086015261161982826114fa565b91505060c083015184820360c086015261163382826114fa565b9150508091505092915050565b611649816118a8565b82525050565b611658816118a8565b82525050565b600060208201905081810360008301526116788184611485565b905092915050565b6000606082019050818103600083015261169a8186611533565b90506116a96020830185611418565b6116b6604083018461164f565b949350505050565b600060408201905081810360008301526116d88185611533565b90506116e7602083018461164f565b9392505050565b600060208201905081810360008301526117078161156c565b9050919050565b6000602082019050611723600083018461164f565b92915050565b6000611733611744565b905061173f8282611926565b919050565b6000604051905090565b600067ffffffffffffffff821115611769576117686119fe565b5b602082029050602081019050919050565b600067ffffffffffffffff821115611795576117946119fe565b5b602082029050602081019050919050565b600067ffffffffffffffff8211156117c1576117c06119fe565b5b6117ca82611a2d565b9050602081019050919050565b6000819050602082019050919050565b6000819050602082019050919050565b600081519050919050565b600081519050919050565b600081519050919050565b6000602082019050919050565b6000602082019050919050565b600082825260208201905092915050565b600082825260208201905092915050565b600082825260208201905092915050565b600082825260208201905092915050565b600061188182611888565b9050919050565b600073ffffffffffffffffffffffffffffffffffffffff82169050919050565b6000819050919050565b82818337600083830152505050565b60005b838110156118df5780820151818401526020810190506118c4565b838111156118ee576000848401525b50505050565b6000600282049050600182168061190c57607f821691505b602082108114156119205761191f6119cf565b5b50919050565b61192f82611a2d565b810181811067ffffffffffffffff8211171561194e5761194d6119fe565b5b80604052505050565b6000611962826118a8565b91507fffffffffffffffffffffffffffffffffffffffffffffffffffffffffffffffff821415611995576119946119a0565b5b600182019050919050565b7f4e487b7100000000000000000000000000000000000000000000000000000000600052601160045260246000fd5b7f4e487b7100000000000000000000000000000000000000000000000000000000600052602260045260246000fd5b7f4e487b7100000000000000000000000000000000000000000000000000000000600052604160045260246000fd5b6000601f19601f8301169050919050565b7f524543495049454e54204e4f54204e554c4c0000000000000000000000000000600082015250565b611a7081611876565b8114611a7b57600080fd5b50565b611a87816118a8565b8114611a9257600080fd5b5056fe73656e643a25732073656e74426f782061646465642061206d61696c2e2069643d25735f6d61696c5265706f7369746f72792061646465642061206d61696c2e2069643d2573a2646970667358221220fd4aa2351f05a35ca359f85b9b02775affdb654e254470f306d950946030203c64736f6c63430008040033",
  "linkReferences": {},
  "deployedLinkReferences": {}
}