{
  "_format": "hh-sol-artifact-1",
  "contractName": "MailService",
  "sourceName": "contracts/MailService.sol",
  "abi": [
    {
      "anonymous": false,
      "inputs": [
        {
          "indexed": true,
          "internalType": "address",
          "name": "from",
          "type": "address"
        },
        {
          "indexed": true,
          "internalType": "uint256",
          "name": "mailId",
          "type": "uint256"
        }
      ],
      "name": "MailSent",
      "type": "event"
    },
    {
      "inputs": [],
      "name": "inbox",
      "outputs": [
        {
          "components": [
            {
              "internalType": "address",
              "name": "from",
              "type": "address"
            },
            {
              "internalType": "address[]",
              "name": "to",
              "type": "address[]"
            },
            {
              "internalType": "address[]",
              "name": "cc",
              "type": "address[]"
            },
            {
              "internalType": "string",
              "name": "subject",
              "type": "string"
            },
            {
              "internalType": "string",
              "name": "content",
              "type": "string"
            },
            {
              "internalType": "uint256",
              "name": "timestamp",
              "type": "uint256"
            }
          ],
          "internalType": "struct MLib.Mail[]",
          "name": "",
          "type": "tuple[]"
        }
      ],
      "stateMutability": "view",
      "type": "function"
    },
    {
      "inputs": [
        {
          "internalType": "address[]",
          "name": "to",
          "type": "address[]"
        },
        {
          "internalType": "address[]",
          "name": "cc",
          "type": "address[]"
        },
        {
          "internalType": "string",
          "name": "subject",
          "type": "string"
        },
        {
          "internalType": "string",
          "name": "content",
          "type": "string"
        }
      ],
      "name": "sendMail",
      "outputs": [],
      "stateMutability": "nonpayable",
      "type": "function"
    },
    {
      "inputs": [],
      "name": "sentBox",
      "outputs": [
        {
          "components": [
            {
              "internalType": "address",
              "name": "from",
              "type": "address"
            },
            {
              "internalType": "address[]",
              "name": "to",
              "type": "address[]"
            },
            {
              "internalType": "address[]",
              "name": "cc",
              "type": "address[]"
            },
            {
              "internalType": "string",
              "name": "subject",
              "type": "string"
            },
            {
              "internalType": "string",
              "name": "content",
              "type": "string"
            },
            {
              "internalType": "uint256",
              "name": "timestamp",
              "type": "uint256"
            }
          ],
          "internalType": "struct MLib.Mail[]",
          "name": "",
          "type": "tuple[]"
        }
      ],
      "stateMutability": "view",
      "type": "function"
    }
  ],
  "bytecode": "0x608060405234801561001057600080fd5b506115ee806100206000396000f3fe608060405234801561001057600080fd5b50600436106100415760003560e01c80635f12020914610046578063651e872b14610064578063fb0e722b14610080575b600080fd5b61004e61009e565b60405161005b9190611199565b60405180910390f35b61007e60048036038101906100799190610e68565b61013b565b005b6100886105cb565b6040516100959190611199565b60405180910390f35b6060610136600360003373ffffffffffffffffffffffffffffffffffffffff1673ffffffffffffffffffffffffffffffffffffffff16815260200190815260200160002080548060200260200160405190810160405280929190818152602001828054801561012c57602002820191906000526020600020905b815481526020019060010190808311610118575b5050505050610668565b905090565b6000845114158061014e57506000835114155b61018d576040517f08c379a000000000000000000000000000000000000000000000000000000000815260040161018490611229565b60405180910390fd5b60006040518060c001604052803373ffffffffffffffffffffffffffffffffffffffff16815260200186815260200185815260200184815260200183815260200142815250905060006101e06000610a54565b9050816001600083815260200190815260200160002060008201518160000160006101000a81548173ffffffffffffffffffffffffffffffffffffffff021916908373ffffffffffffffffffffffffffffffffffffffff1602179055506020820151816001019080519060200190610259929190610bdc565b506040820151816002019080519060200190610276929190610bdc565b506060820151816003019080519060200190610293929190610c66565b5060808201518160040190805190602001906102b0929190610c66565b5060a082015181600501559050506102e06040518060600160405280602381526020016115966023913982610a62565b600360003373ffffffffffffffffffffffffffffffffffffffff1673ffffffffffffffffffffffffffffffffffffffff168152602001908152602001600020819080600181540180825580915050600190039060005260206000200160009091909190915055610369604051806060016040528060238152602001611573602391393383610afe565b60005b865181101561046e57600260008883815181106103b2577f4e487b7100000000000000000000000000000000000000000000000000000000600052603260045260246000fd5b602002602001015173ffffffffffffffffffffffffffffffffffffffff1673ffffffffffffffffffffffffffffffffffffffff16815260200190815260200160002082908060018154018082558091505060019003906000526020600020016000909190919091505561045b6040518060400160405280601f81526020017f746f3a257320696e626f782061646465642061206d61696c2e2069643d2573008152503384610afe565b80806104669061144b565b91505061036c565b5060005b855181101561057457600260008783815181106104b8577f4e487b7100000000000000000000000000000000000000000000000000000000600052603260045260246000fd5b602002602001015173ffffffffffffffffffffffffffffffffffffffff1673ffffffffffffffffffffffffffffffffffffffff1681526020019081526020016000208290806001815401808255809150506001900390600052602060002001600090919091909150556105616040518060400160405280601f81526020017f63633a257320696e626f782061646465642061206d61696c2e2069643d2573008152503384610afe565b808061056c9061144b565b915050610472565b5061057f6000610b9d565b803373ffffffffffffffffffffffffffffffffffffffff167f3d744d42073d3cfa47f1bba0aa07d56acbea10c3e7e7d5073144d8841625cd6d60405160405180910390a3505050505050565b6060610663600260003373ffffffffffffffffffffffffffffffffffffffff1673ffffffffffffffffffffffffffffffffffffffff16815260200190815260200160002080548060200260200160405190810160405280929190818152602001828054801561065957602002820191906000526020600020905b815481526020019060010190808311610645575b5050505050610668565b905090565b60606000825167ffffffffffffffff8111156106ad577f4e487b7100000000000000000000000000000000000000000000000000000000600052604160045260246000fd5b6040519080825280602002602001820160405280156106e657816020015b6106d3610cec565b8152602001906001900390816106cb5790505b50905060005b8351811015610a4a5760016000858381518110610732577f4e487b7100000000000000000000000000000000000000000000000000000000600052603260045260246000fd5b602002602001015181526020019081526020016000206040518060c00160405290816000820160009054906101000a900473ffffffffffffffffffffffffffffffffffffffff1673ffffffffffffffffffffffffffffffffffffffff1673ffffffffffffffffffffffffffffffffffffffff1681526020016001820180548060200260200160405190810160405280929190818152602001828054801561082e57602002820191906000526020600020905b8160009054906101000a900473ffffffffffffffffffffffffffffffffffffffff1673ffffffffffffffffffffffffffffffffffffffff16815260200190600101908083116107e4575b50505050508152602001600282018054806020026020016040519081016040528092919081815260200182805480156108bc57602002820191906000526020600020905b8160009054906101000a900473ffffffffffffffffffffffffffffffffffffffff1673ffffffffffffffffffffffffffffffffffffffff1681526020019060010190808311610872575b505050505081526020016003820180546108d5906113e8565b80601f0160208091040260200160405190810160405280929190818152602001828054610901906113e8565b801561094e5780601f106109235761010080835404028352916020019161094e565b820191906000526020600020905b81548152906001019060200180831161093157829003601f168201915b50505050508152602001600482018054610967906113e8565b80601f0160208091040260200160405190810160405280929190818152602001828054610993906113e8565b80156109e05780601f106109b5576101008083540402835291602001916109e0565b820191906000526020600020905b8154815290600101906020018083116109c357829003601f168201915b50505050508152602001600582015481525050828281518110610a2c577f4e487b7100000000000000000000000000000000000000000000000000000000600052603260045260246000fd5b60200260200101819052508080610a429061144b565b9150506106ec565b5080915050919050565b600081600001549050919050565b610afa8282604051602401610a789291906111f9565b6040516020818303038152906040527f9710a9d0000000000000000000000000000000000000000000000000000000007bffffffffffffffffffffffffffffffffffffffffffffffffffffffff19166020820180517bffffffffffffffffffffffffffffffffffffffffffffffffffffffff8381831617835250505050610bb3565b5050565b610b98838383604051602401610b16939291906111bb565b6040516020818303038152906040527f07c81217000000000000000000000000000000000000000000000000000000007bffffffffffffffffffffffffffffffffffffffffffffffffffffffff19166020820180517bffffffffffffffffffffffffffffffffffffffffffffffffffffffff8381831617835250505050610bb3565b505050565b6001816000016000828254019250508190555050565b60008151905060006a636f6e736f6c652e6c6f679050602083016000808483855afa5050505050565b828054828255906000526020600020908101928215610c55579160200282015b82811115610c545782518260006101000a81548173ffffffffffffffffffffffffffffffffffffffff021916908373ffffffffffffffffffffffffffffffffffffffff16021790555091602001919060010190610bfc565b5b509050610c629190610d38565b5090565b828054610c72906113e8565b90600052602060002090601f016020900481019282610c945760008555610cdb565b82601f10610cad57805160ff1916838001178555610cdb565b82800160010185558215610cdb579182015b82811115610cda578251825591602001919060010190610cbf565b5b509050610ce89190610d38565b5090565b6040518060c00160405280600073ffffffffffffffffffffffffffffffffffffffff16815260200160608152602001606081526020016060815260200160608152602001600081525090565b5b80821115610d51576000816000905550600101610d39565b5090565b6000610d68610d638461126e565b611249565b90508083825260208201905082856020860282011115610d8757600080fd5b60005b85811015610db75781610d9d8882610dff565b845260208401935060208301925050600181019050610d8a565b5050509392505050565b6000610dd4610dcf8461129a565b611249565b905082815260208101848484011115610dec57600080fd5b610df78482856113a6565b509392505050565b600081359050610e0e8161155b565b92915050565b600082601f830112610e2557600080fd5b8135610e35848260208601610d55565b91505092915050565b600082601f830112610e4f57600080fd5b8135610e5f848260208601610dc1565b91505092915050565b60008060008060808587031215610e7e57600080fd5b600085013567ffffffffffffffff811115610e9857600080fd5b610ea487828801610e14565b945050602085013567ffffffffffffffff811115610ec157600080fd5b610ecd87828801610e14565b935050604085013567ffffffffffffffff811115610eea57600080fd5b610ef687828801610e3e565b925050606085013567ffffffffffffffff811115610f1357600080fd5b610f1f87828801610e3e565b91505092959194509250565b6000610f378383610f57565b60208301905092915050565b6000610f4f83836110dd565b905092915050565b610f608161136a565b82525050565b610f6f8161136a565b82525050565b6000610f80826112eb565b610f8a8185611326565b9350610f95836112cb565b8060005b83811015610fc6578151610fad8882610f2b565b9750610fb88361130c565b925050600181019050610f99565b5085935050505092915050565b6000610fde826112f6565b610fe88185611337565b935083602082028501610ffa856112db565b8060005b8581101561103657848403895281516110178582610f43565b945061102283611319565b925060208a01995050600181019050610ffe565b50829750879550505050505092915050565b600061105382611301565b61105d8185611348565b935061106d8185602086016113b5565b61107681611521565b840191505092915050565b600061108c82611301565b6110968185611359565b93506110a68185602086016113b5565b6110af81611521565b840191505092915050565b60006110c7601283611359565b91506110d282611532565b602082019050919050565b600060c0830160008301516110f56000860182610f57565b506020830151848203602086015261110d8282610f75565b915050604083015184820360408601526111278282610f75565b915050606083015184820360608601526111418282611048565b9150506080830151848203608086015261115b8282611048565b91505060a083015161117060a086018261117b565b508091505092915050565b6111848161139c565b82525050565b6111938161139c565b82525050565b600060208201905081810360008301526111b38184610fd3565b905092915050565b600060608201905081810360008301526111d58186611081565b90506111e46020830185610f66565b6111f1604083018461118a565b949350505050565b600060408201905081810360008301526112138185611081565b9050611222602083018461118a565b9392505050565b60006020820190508181036000830152611242816110ba565b9050919050565b6000611253611264565b905061125f828261141a565b919050565b6000604051905090565b600067ffffffffffffffff821115611289576112886114f2565b5b602082029050602081019050919050565b600067ffffffffffffffff8211156112b5576112b46114f2565b5b6112be82611521565b9050602081019050919050565b6000819050602082019050919050565b6000819050602082019050919050565b600081519050919050565b600081519050919050565b600081519050919050565b6000602082019050919050565b6000602082019050919050565b600082825260208201905092915050565b600082825260208201905092915050565b600082825260208201905092915050565b600082825260208201905092915050565b60006113758261137c565b9050919050565b600073ffffffffffffffffffffffffffffffffffffffff82169050919050565b6000819050919050565b82818337600083830152505050565b60005b838110156113d35780820151818401526020810190506113b8565b838111156113e2576000848401525b50505050565b6000600282049050600182168061140057607f821691505b60208210811415611414576114136114c3565b5b50919050565b61142382611521565b810181811067ffffffffffffffff82111715611442576114416114f2565b5b80604052505050565b60006114568261139c565b91507fffffffffffffffffffffffffffffffffffffffffffffffffffffffffffffffff82141561148957611488611494565b5b600182019050919050565b7f4e487b7100000000000000000000000000000000000000000000000000000000600052601160045260246000fd5b7f4e487b7100000000000000000000000000000000000000000000000000000000600052602260045260246000fd5b7f4e487b7100000000000000000000000000000000000000000000000000000000600052604160045260246000fd5b6000601f19601f8301169050919050565b7f524543495049454e54204e4f54204e554c4c0000000000000000000000000000600082015250565b6115648161136a565b811461156f57600080fd5b5056fe73656e643a25732073656e74426f782061646465642061206d61696c2e2069643d25735f6d61696c5265706f7369746f72792061646465642061206d61696c2e2069643d2573a2646970667358221220f54e5cd6863d216e0d395d3b2e6aa4f712e690dbcbb726c6cc99fba22cbdf23664736f6c63430008040033",
  "linkReferences": {},
  "deployedLinkReferences": {}
}