{
  "_format": "hh-sol-artifact-1",
  "contractName": "MailService",
  "sourceName": "contracts/MailService.sol",
  "abi": [
    {
      "anonymous": false,
      "inputs": [
        {
          "indexed": true,
          "internalType": "address",
          "name": "from",
          "type": "address"
        },
        {
          "indexed": true,
          "internalType": "uint256",
          "name": "mailId",
          "type": "uint256"
        }
      ],
      "name": "MailSent",
      "type": "event"
    },
    {
      "inputs": [],
      "name": "inbox",
      "outputs": [
        {
          "components": [
            {
              "internalType": "address",
              "name": "from",
              "type": "address"
            },
            {
              "internalType": "address[]",
              "name": "to",
              "type": "address[]"
            },
            {
              "internalType": "address[]",
              "name": "cc",
              "type": "address[]"
            },
            {
              "internalType": "string",
              "name": "subject",
              "type": "string"
            },
            {
              "internalType": "string",
              "name": "content",
              "type": "string"
            }
          ],
          "internalType": "struct MLib.Mail[]",
          "name": "",
          "type": "tuple[]"
        }
      ],
      "stateMutability": "view",
      "type": "function"
    },
    {
      "inputs": [
        {
          "internalType": "address[]",
          "name": "to",
          "type": "address[]"
        },
        {
          "internalType": "address[]",
          "name": "cc",
          "type": "address[]"
        },
        {
          "internalType": "string",
          "name": "subject",
          "type": "string"
        },
        {
          "internalType": "string",
          "name": "content",
          "type": "string"
        }
      ],
      "name": "sendMail",
      "outputs": [],
      "stateMutability": "nonpayable",
      "type": "function"
    },
    {
      "inputs": [],
      "name": "sentBox",
      "outputs": [
        {
          "components": [
            {
              "internalType": "address",
              "name": "from",
              "type": "address"
            },
            {
              "internalType": "address[]",
              "name": "to",
              "type": "address[]"
            },
            {
              "internalType": "address[]",
              "name": "cc",
              "type": "address[]"
            },
            {
              "internalType": "string",
              "name": "subject",
              "type": "string"
            },
            {
              "internalType": "string",
              "name": "content",
              "type": "string"
            }
          ],
          "internalType": "struct MLib.Mail[]",
          "name": "",
          "type": "tuple[]"
        }
      ],
      "stateMutability": "view",
      "type": "function"
    }
  ],
  "bytecode": "0x608060405234801561001057600080fd5b506115ab806100206000396000f3fe608060405234801561001057600080fd5b50600436106100415760003560e01c80635f12020914610046578063651e872b14610064578063fb0e722b14610080575b600080fd5b61004e61009e565b60405161005b9190611156565b60405180910390f35b61007e60048036038101906100799190610e47565b61013b565b005b6100886105bb565b6040516100959190611156565b60405180910390f35b6060610136600360003373ffffffffffffffffffffffffffffffffffffffff1673ffffffffffffffffffffffffffffffffffffffff16815260200190815260200160002080548060200260200160405190810160405280929190818152602001828054801561012c57602002820191906000526020600020905b815481526020019060010190808311610118575b5050505050610658565b905090565b6000845114158061014e57506000835114155b61018d576040517f08c379a0000000000000000000000000000000000000000000000000000000008152600401610184906111e6565b60405180910390fd5b60006040518060a001604052803373ffffffffffffffffffffffffffffffffffffffff16815260200186815260200185815260200184815260200183815250905060006101da6000610a3a565b9050816001600083815260200190815260200160002060008201518160000160006101000a81548173ffffffffffffffffffffffffffffffffffffffff021916908373ffffffffffffffffffffffffffffffffffffffff1602179055506020820151816001019080519060200190610253929190610bc2565b506040820151816002019080519060200190610270929190610bc2565b50606082015181600301908051906020019061028d929190610c4c565b5060808201518160040190805190602001906102aa929190610c4c565b509050506102d06040518060600160405280602381526020016115536023913982610a48565b600360003373ffffffffffffffffffffffffffffffffffffffff1673ffffffffffffffffffffffffffffffffffffffff168152602001908152602001600020819080600181540180825580915050600190039060005260206000200160009091909190915055610359604051806060016040528060238152602001611530602391393383610ae4565b60005b865181101561045e57600260008883815181106103a2577f4e487b7100000000000000000000000000000000000000000000000000000000600052603260045260246000fd5b602002602001015173ffffffffffffffffffffffffffffffffffffffff1673ffffffffffffffffffffffffffffffffffffffff16815260200190815260200160002082908060018154018082558091505060019003906000526020600020016000909190919091505561044b6040518060400160405280601f81526020017f746f3a257320696e626f782061646465642061206d61696c2e2069643d2573008152503384610ae4565b808061045690611408565b91505061035c565b5060005b855181101561056457600260008783815181106104a8577f4e487b7100000000000000000000000000000000000000000000000000000000600052603260045260246000fd5b602002602001015173ffffffffffffffffffffffffffffffffffffffff1673ffffffffffffffffffffffffffffffffffffffff1681526020019081526020016000208290806001815401808255809150506001900390600052602060002001600090919091909150556105516040518060400160405280601f81526020017f63633a257320696e626f782061646465642061206d61696c2e2069643d2573008152503384610ae4565b808061055c90611408565b915050610462565b5061056f6000610b83565b803373ffffffffffffffffffffffffffffffffffffffff167f3d744d42073d3cfa47f1bba0aa07d56acbea10c3e7e7d5073144d8841625cd6d60405160405180910390a3505050505050565b6060610653600260003373ffffffffffffffffffffffffffffffffffffffff1673ffffffffffffffffffffffffffffffffffffffff16815260200190815260200160002080548060200260200160405190810160405280929190818152602001828054801561064957602002820191906000526020600020905b815481526020019060010190808311610635575b5050505050610658565b905090565b60606000825167ffffffffffffffff81111561069d577f4e487b7100000000000000000000000000000000000000000000000000000000600052604160045260246000fd5b6040519080825280602002602001820160405280156106d657816020015b6106c3610cd2565b8152602001906001900390816106bb5790505b50905060005b8351811015610a305760016000858381518110610722577f4e487b7100000000000000000000000000000000000000000000000000000000600052603260045260246000fd5b602002602001015181526020019081526020016000206040518060a00160405290816000820160009054906101000a900473ffffffffffffffffffffffffffffffffffffffff1673ffffffffffffffffffffffffffffffffffffffff1673ffffffffffffffffffffffffffffffffffffffff1681526020016001820180548060200260200160405190810160405280929190818152602001828054801561081e57602002820191906000526020600020905b8160009054906101000a900473ffffffffffffffffffffffffffffffffffffffff1673ffffffffffffffffffffffffffffffffffffffff16815260200190600101908083116107d4575b50505050508152602001600282018054806020026020016040519081016040528092919081815260200182805480156108ac57602002820191906000526020600020905b8160009054906101000a900473ffffffffffffffffffffffffffffffffffffffff1673ffffffffffffffffffffffffffffffffffffffff1681526020019060010190808311610862575b505050505081526020016003820180546108c5906113a5565b80601f01602080910402602001604051908101604052809291908181526020018280546108f1906113a5565b801561093e5780601f106109135761010080835404028352916020019161093e565b820191906000526020600020905b81548152906001019060200180831161092157829003601f168201915b50505050508152602001600482018054610957906113a5565b80601f0160208091040260200160405190810160405280929190818152602001828054610983906113a5565b80156109d05780601f106109a5576101008083540402835291602001916109d0565b820191906000526020600020905b8154815290600101906020018083116109b357829003601f168201915b505050505081525050828281518110610a12577f4e487b7100000000000000000000000000000000000000000000000000000000600052603260045260246000fd5b60200260200101819052508080610a2890611408565b9150506106dc565b5080915050919050565b600081600001549050919050565b610ae08282604051602401610a5e9291906111b6565b6040516020818303038152906040527f9710a9d0000000000000000000000000000000000000000000000000000000007bffffffffffffffffffffffffffffffffffffffffffffffffffffffff19166020820180517bffffffffffffffffffffffffffffffffffffffffffffffffffffffff8381831617835250505050610b99565b5050565b610b7e838383604051602401610afc93929190611178565b6040516020818303038152906040527f07c81217000000000000000000000000000000000000000000000000000000007bffffffffffffffffffffffffffffffffffffffffffffffffffffffff19166020820180517bffffffffffffffffffffffffffffffffffffffffffffffffffffffff8381831617835250505050610b99565b505050565b6001816000016000828254019250508190555050565b60008151905060006a636f6e736f6c652e6c6f679050602083016000808483855afa5050505050565b828054828255906000526020600020908101928215610c3b579160200282015b82811115610c3a5782518260006101000a81548173ffffffffffffffffffffffffffffffffffffffff021916908373ffffffffffffffffffffffffffffffffffffffff16021790555091602001919060010190610be2565b5b509050610c489190610d17565b5090565b828054610c58906113a5565b90600052602060002090601f016020900481019282610c7a5760008555610cc1565b82601f10610c9357805160ff1916838001178555610cc1565b82800160010185558215610cc1579182015b82811115610cc0578251825591602001919060010190610ca5565b5b509050610cce9190610d17565b5090565b6040518060a00160405280600073ffffffffffffffffffffffffffffffffffffffff168152602001606081526020016060815260200160608152602001606081525090565b5b80821115610d30576000816000905550600101610d18565b5090565b6000610d47610d428461122b565b611206565b90508083825260208201905082856020860282011115610d6657600080fd5b60005b85811015610d965781610d7c8882610dde565b845260208401935060208301925050600181019050610d69565b5050509392505050565b6000610db3610dae84611257565b611206565b905082815260208101848484011115610dcb57600080fd5b610dd6848285611363565b509392505050565b600081359050610ded81611518565b92915050565b600082601f830112610e0457600080fd5b8135610e14848260208601610d34565b91505092915050565b600082601f830112610e2e57600080fd5b8135610e3e848260208601610da0565b91505092915050565b60008060008060808587031215610e5d57600080fd5b600085013567ffffffffffffffff811115610e7757600080fd5b610e8387828801610df3565b945050602085013567ffffffffffffffff811115610ea057600080fd5b610eac87828801610df3565b935050604085013567ffffffffffffffff811115610ec957600080fd5b610ed587828801610e1d565b925050606085013567ffffffffffffffff811115610ef257600080fd5b610efe87828801610e1d565b91505092959194509250565b6000610f168383610f36565b60208301905092915050565b6000610f2e83836110bc565b905092915050565b610f3f81611327565b82525050565b610f4e81611327565b82525050565b6000610f5f826112a8565b610f6981856112e3565b9350610f7483611288565b8060005b83811015610fa5578151610f8c8882610f0a565b9750610f97836112c9565b925050600181019050610f78565b5085935050505092915050565b6000610fbd826112b3565b610fc781856112f4565b935083602082028501610fd985611298565b8060005b858110156110155784840389528151610ff68582610f22565b9450611001836112d6565b925060208a01995050600181019050610fdd565b50829750879550505050505092915050565b6000611032826112be565b61103c8185611305565b935061104c818560208601611372565b611055816114de565b840191505092915050565b600061106b826112be565b6110758185611316565b9350611085818560208601611372565b61108e816114de565b840191505092915050565b60006110a6601283611316565b91506110b1826114ef565b602082019050919050565b600060a0830160008301516110d46000860182610f36565b50602083015184820360208601526110ec8282610f54565b915050604083015184820360408601526111068282610f54565b915050606083015184820360608601526111208282611027565b9150506080830151848203608086015261113a8282611027565b9150508091505092915050565b61115081611359565b82525050565b600060208201905081810360008301526111708184610fb2565b905092915050565b600060608201905081810360008301526111928186611060565b90506111a16020830185610f45565b6111ae6040830184611147565b949350505050565b600060408201905081810360008301526111d08185611060565b90506111df6020830184611147565b9392505050565b600060208201905081810360008301526111ff81611099565b9050919050565b6000611210611221565b905061121c82826113d7565b919050565b6000604051905090565b600067ffffffffffffffff821115611246576112456114af565b5b602082029050602081019050919050565b600067ffffffffffffffff821115611272576112716114af565b5b61127b826114de565b9050602081019050919050565b6000819050602082019050919050565b6000819050602082019050919050565b600081519050919050565b600081519050919050565b600081519050919050565b6000602082019050919050565b6000602082019050919050565b600082825260208201905092915050565b600082825260208201905092915050565b600082825260208201905092915050565b600082825260208201905092915050565b600061133282611339565b9050919050565b600073ffffffffffffffffffffffffffffffffffffffff82169050919050565b6000819050919050565b82818337600083830152505050565b60005b83811015611390578082015181840152602081019050611375565b8381111561139f576000848401525b50505050565b600060028204905060018216806113bd57607f821691505b602082108114156113d1576113d0611480565b5b50919050565b6113e0826114de565b810181811067ffffffffffffffff821117156113ff576113fe6114af565b5b80604052505050565b600061141382611359565b91507fffffffffffffffffffffffffffffffffffffffffffffffffffffffffffffffff82141561144657611445611451565b5b600182019050919050565b7f4e487b7100000000000000000000000000000000000000000000000000000000600052601160045260246000fd5b7f4e487b7100000000000000000000000000000000000000000000000000000000600052602260045260246000fd5b7f4e487b7100000000000000000000000000000000000000000000000000000000600052604160045260246000fd5b6000601f19601f8301169050919050565b7f524543495049454e54204e4f54204e554c4c0000000000000000000000000000600082015250565b61152181611327565b811461152c57600080fd5b5056fe73656e643a25732073656e74426f782061646465642061206d61696c2e2069643d25735f6d61696c5265706f7369746f72792061646465642061206d61696c2e2069643d2573a2646970667358221220a3957f76b11293cac5f95ebea0eb99194c6b8db7a3eb542630a8789d3476331564736f6c63430008040033",
  "linkReferences": {},
  "deployedLinkReferences": {}
}